:103C0000112414BEE0E6F0E088E18083108211E028
:103C1000A0E0B1E0EAE0FFE302C005900D92AA3116
:103C2000B107D9F721E0AAE1B1E001C01D92AE3998
:103C3000B207E1F78AB1806C8AB95F9A85E085BDE9
:103C400082E58093BA0084E48093BC0083E0F82E80
:103C5000CDE9D1E001E095E0E92E21E1D22E3CE36F
:103C6000C32E41E2B42E80919D01813259F410920D
:103C7000BC0015BC1BB890E080E000000197E9F79C
:103C80000E9400008091BC0087FF17C01091BC000B
:103C90008091B900887F803A09F47BC0F0F48038C5
:103CA000B1F1883809F46CC0803609F0D9C010929F
:103CB0001A015E9A10681093BC00A89BD4CFC6BCB2
:103CC0008BB180588BB980910001823008F4CAC052
:103CD00081508093000105BBC6CF883B49F0803CF2
:103CE00009F46EC0883A09F0BBC010921A015E9ABE
:103CF000E0911A0181E08E0F80931A0180919D015D
:103D0000823171F188F4813019F18FEF26C0609112
:103D1000BB0080911A0191E0980F90931A01A8D0EE
:103D20008111C8CF1F7BC6CF8232F9F0823369F789
:103D300080911B0190911C019C012F5F3F4F30939C
:103D40001C0120931B0181BD92BDF89A80B505C06E
:103D5000EF70F0E0E75FFE4F80818093BB00AACF59
:103D6000E770F0E0EF5FFE4FF7CFE0911B01F091BD
:103D70001C0184913196F0931C01E0931B01EDCF5F
:103D80006091BB0080911A0191E0980F90931A0105
:103D90006FD080919D018F7E823481F41F7B812FB3
:103DA00080688093BC0080919D01823519F58091D7
:103DB0001A018450EDE1F1E0815028F410921A01CB
:103DC0005E98106477CF919120911B0121BD2091C5
:103DD0001C0122BD90BD20911B0130911C012F5F61
:103DE0003F4F30931C0120931B01FA9AF99AF999DD
:103DF000FECFE2CF80911B0190911C0181152CE335
:103E00009207E0F6FC01F0925700E89507B600FC37
:103E1000FDCFADE1B1E0AC014D5151402C91FA0123
:103E2000EA0FFB1F11963C9111970901009357006F
:103E3000E89511241296CA17DB0781F79C012058D8
:103E40003F4F30931C0120931B01FC01E09257006F
:103E5000E89507B600FCFDCFD0925700E895AECFAD
:103E6000106128CF813009F036CFB0929D0133CF59
:103E70008130C1F058F0843070F580E090911B01E2
:103E8000862B90931C0180931B0106C0633030F495
:103E90001092000160939D0181E0089591E290935A
:103EA0009D01089590919D01913021F0923041F053
:103EB00080E008956038E1F781E280939D01F8CFBA
:103EC000611102C092E1EBCF92E2613041F392E3E3
:103ED000623071F7E4CF90919D01923391F0923569
:103EE00011F0923229F78450E82FF0E0E35EFE4FA4
:103EF00060838F3788F280919D018232C9F682E417
:0A3F0000DCCF92E590939D01EECF17
:103F0A00641E940B803C000200545749424F4F54A0
:0A3F1A002076332E32000000000074
:0400000300003C00BD
:00000001FF
